{
  "contractName": "Election",
  "abi": [
    {
      "inputs": [],
      "payable": false,
      "stateMutability": "nonpayable",
      "type": "constructor"
    },
    {
      "constant": true,
      "inputs": [],
      "name": "candidate",
      "outputs": [
        {
          "internalType": "string",
          "name": "",
          "type": "string"
        }
      ],
      "payable": false,
      "stateMutability": "view",
      "type": "function"
    },
    {
      "constant": true,
      "inputs": [
        {
          "internalType": "uint256",
          "name": "",
          "type": "uint256"
        }
      ],
      "name": "candidates",
      "outputs": [
        {
          "internalType": "uint256",
          "name": "id",
          "type": "uint256"
        },
        {
          "internalType": "string",
          "name": "name",
          "type": "string"
        },
        {
          "internalType": "uint256",
          "name": "voteCount",
          "type": "uint256"
        }
      ],
      "payable": false,
      "stateMutability": "view",
      "type": "function"
    },
    {
      "constant": true,
      "inputs": [],
      "name": "candidatesCount",
      "outputs": [
        {
          "internalType": "uint256",
          "name": "",
          "type": "uint256"
        }
      ],
      "payable": false,
      "stateMutability": "view",
      "type": "function"
    },
    {
      "constant": true,
      "inputs": [
        {
          "internalType": "address",
          "name": "",
          "type": "address"
        }
      ],
      "name": "voters",
      "outputs": [
        {
          "internalType": "bool",
          "name": "",
          "type": "bool"
        }
      ],
      "payable": false,
      "stateMutability": "view",
      "type": "function"
    },
    {
      "constant": false,
      "inputs": [
        {
          "internalType": "uint256",
          "name": "_candidateId",
          "type": "uint256"
        }
      ],
      "name": "vote",
      "outputs": [],
      "payable": false,
      "stateMutability": "nonpayable",
      "type": "function"
    }
  ],
  "bytecode": "0x608060405234801561001057600080fd5b506100556040518060400160405280600b81526020017f43616e64696461746520310000000000000000000000000000000000000000008152506100e260201b60201c565b6100996040518060400160405280600b81526020017f43616e64696461746520320000000000000000000000000000000000000000008152506100e260201b60201c565b6100dd6040518060400160405280600b81526020017f43616e64696461746520330000000000000000000000000000000000000000008152506100e260201b60201c565b610203565b60026000815480929190600101919050555060405180606001604052806002548152602001828152602001600081525060016000600254815260200190815260200160002060008201518160000155602082015181600101908051906020019061014d92919061015e565b506040820151816002015590505050565b828054600181600116156101000203166002900490600052602060002090601f016020900481019282601f1061019f57805160ff19168380011785556101cd565b828001600101855582156101cd579182015b828111156101cc5782518255916020019190600101906101b1565b5b5090506101da91906101de565b5090565b61020091905b808211156101fc5760008160009055506001016101e4565b5090565b90565b6104ea806102126000396000f3fe608060405234801561001057600080fd5b50600436106100575760003560e01c80630121b93f1461005c5780632d35a8a21461008a5780633477ee2e146100a85780636c8381f81461015d578063a3ec138d146101e0575b600080fd5b6100886004803603602081101561007257600080fd5b810190808035906020019092919050505061023c565b005b61009261032f565b6040518082815260200191505060405180910390f35b6100d4600480360360208110156100be57600080fd5b8101908080359060200190929190505050610335565b6040518084815260200180602001838152602001828103825284818151815260200191508051906020019080838360005b83811015610120578082015181840152602081019050610105565b50505050905090810190601f16801561014d5780820380516001836020036101000a031916815260200191505b5094505050505060405180910390f35b6101656103f7565b6040518080602001828103825283818151815260200191508051906020019080838360005b838110156101a557808201518184015260208101905061018a565b50505050905090810190601f1680156101d25780820380516001836020036101000a031916815260200191505b509250505060405180910390f35b610222600480360360208110156101f657600080fd5b81019080803573ffffffffffffffffffffffffffffffffffffffff169060200190929190505050610495565b604051808215151515815260200191505060405180910390f35b600360003373ffffffffffffffffffffffffffffffffffffffff1673ffffffffffffffffffffffffffffffffffffffff16815260200190815260200160002060009054906101000a900460ff161561029357600080fd5b6000811180156102a557506002548111155b6102ae57600080fd5b6001600360003373ffffffffffffffffffffffffffffffffffffffff1673ffffffffffffffffffffffffffffffffffffffff16815260200190815260200160002060006101000a81548160ff021916908315150217905550600160008281526020019081526020016000206002016000815480929190600101919050555050565b60025481565b6001602052806000526040600020600091509050806000015490806001018054600181600116156101000203166002900480601f0160208091040260200160405190810160405280929190818152602001828054600181600116156101000203166002900480156103e75780601f106103bc576101008083540402835291602001916103e7565b820191906000526020600020905b8154815290600101906020018083116103ca57829003601f168201915b5050505050908060020154905083565b60008054600181600116156101000203166002900480601f01602080910402602001604051908101604052809291908181526020018280546001816001161561010002031660029004801561048d5780601f106104625761010080835404028352916020019161048d565b820191906000526020600020905b81548152906001019060200180831161047057829003601f168201915b505050505081565b60036020528060005260406000206000915054906101000a900460ff168156fea265627a7a72315820d5c0d3bf67baa7f5589e11298c8b3e2b2cf501c15e1839c26f7cf2d3a71ded3a64736f6c63430005100032",
  "source": "pragma solidity 0.5.16;\n\ncontract Election {\n    // Read/write candidate\n    string public candidate;\n\n    // Model a Candidate\n    struct Candidate {\n        uint id;\n        string name;\n        uint voteCount;\n    }\n\n    // Read/write Candidates\n    mapping(uint => Candidate) public candidates;\n\n    // Store Candidates Count\n    uint public candidatesCount;\n\n    // A function to add candidates \n    function addCandidate (string memory _name) private {\n        candidatesCount ++;\n        candidates[candidatesCount] = Candidate(candidatesCount, _name, 0);\n    }\n\n    // Store accounts that have voted\n    mapping(address => bool) public voters;\n\n    function vote (uint _candidateId) public {\n        // require that they haven't voted before\n        require(!voters[msg.sender]);\n\n        // require a valid candidate\n        require(_candidateId > 0 && _candidateId <= candidatesCount);\n\n        // record that voter has voted\n        voters[msg.sender] = true;\n\n        // update candidate vote Count\n        candidates[_candidateId].voteCount ++;\n    }\n\n\n    // Constructor\n    constructor() public {\n        //candidate = \"Candidate 1\";\n        addCandidate(\"Candidate 1\");\n        addCandidate(\"Candidate 2\");\n        addCandidate(\"Candidate 3\");\n    }\n}",
  "sourcePath": "/home/yassineelkhadiri/Desktop/TP/electionPorject/contracts/Election.sol",
  "compiler": {
    "name": "solc",
    "version": "0.5.16+commit.9c3226ce.Emscripten.clang"
  },
  "schemaVersion": "3.4.7",
  "updatedAt": "2022-05-06T11:22:50.500Z",
  "networkType": "ethereum",
  "devdoc": {
    "methods": {}
  },
  "userdoc": {
    "methods": {}
  }
}